{
  "contractName": "Marketplace",
  "abi": [
    {
      "inputs": [],
      "stateMutability": "nonpayable",
      "type": "constructor"
    },
    {
      "anonymous": false,
      "inputs": [
        {
          "indexed": true,
          "internalType": "address",
          "name": "owner",
          "type": "address"
        },
        {
          "indexed": true,
          "internalType": "address",
          "name": "approved",
          "type": "address"
        },
        {
          "indexed": true,
          "internalType": "uint256",
          "name": "tokenId",
          "type": "uint256"
        }
      ],
      "name": "Approval",
      "type": "event"
    },
    {
      "anonymous": false,
      "inputs": [
        {
          "indexed": true,
          "internalType": "address",
          "name": "owner",
          "type": "address"
        },
        {
          "indexed": true,
          "internalType": "address",
          "name": "operator",
          "type": "address"
        },
        {
          "indexed": false,
          "internalType": "bool",
          "name": "approved",
          "type": "bool"
        }
      ],
      "name": "ApprovalForAll",
      "type": "event"
    },
    {
      "anonymous": false,
      "inputs": [
        {
          "indexed": true,
          "internalType": "address",
          "name": "previousOwner",
          "type": "address"
        },
        {
          "indexed": true,
          "internalType": "address",
          "name": "newOwner",
          "type": "address"
        }
      ],
      "name": "OwnershipTransferred",
      "type": "event"
    },
    {
      "anonymous": false,
      "inputs": [
        {
          "indexed": false,
          "internalType": "uint256",
          "name": "id",
          "type": "uint256"
        },
        {
          "indexed": false,
          "internalType": "string",
          "name": "name",
          "type": "string"
        },
        {
          "indexed": false,
          "internalType": "string",
          "name": "image",
          "type": "string"
        },
        {
          "indexed": false,
          "internalType": "uint256",
          "name": "price",
          "type": "uint256"
        },
        {
          "indexed": false,
          "internalType": "address payable",
          "name": "owner",
          "type": "address"
        },
        {
          "indexed": false,
          "internalType": "bool",
          "name": "purchased",
          "type": "bool"
        }
      ],
      "name": "ProductCreated",
      "type": "event"
    },
    {
      "anonymous": false,
      "inputs": [
        {
          "indexed": false,
          "internalType": "uint256",
          "name": "id",
          "type": "uint256"
        },
        {
          "indexed": false,
          "internalType": "string",
          "name": "name",
          "type": "string"
        },
        {
          "indexed": false,
          "internalType": "string",
          "name": "image",
          "type": "string"
        },
        {
          "indexed": false,
          "internalType": "uint256",
          "name": "price",
          "type": "uint256"
        },
        {
          "indexed": false,
          "internalType": "address payable",
          "name": "owner",
          "type": "address"
        },
        {
          "indexed": false,
          "internalType": "bool",
          "name": "purchased",
          "type": "bool"
        }
      ],
      "name": "ProductPurchased",
      "type": "event"
    },
    {
      "anonymous": false,
      "inputs": [
        {
          "indexed": true,
          "internalType": "address",
          "name": "from",
          "type": "address"
        },
        {
          "indexed": true,
          "internalType": "address",
          "name": "to",
          "type": "address"
        },
        {
          "indexed": true,
          "internalType": "uint256",
          "name": "tokenId",
          "type": "uint256"
        }
      ],
      "name": "Transfer",
      "type": "event"
    },
    {
      "inputs": [
        {
          "internalType": "address",
          "name": "to",
          "type": "address"
        },
        {
          "internalType": "uint256",
          "name": "tokenId",
          "type": "uint256"
        }
      ],
      "name": "approve",
      "outputs": [],
      "stateMutability": "nonpayable",
      "type": "function"
    },
    {
      "inputs": [
        {
          "internalType": "address",
          "name": "owner",
          "type": "address"
        }
      ],
      "name": "balanceOf",
      "outputs": [
        {
          "internalType": "uint256",
          "name": "",
          "type": "uint256"
        }
      ],
      "stateMutability": "view",
      "type": "function",
      "constant": true
    },
    {
      "inputs": [],
      "name": "baseURI",
      "outputs": [
        {
          "internalType": "string",
          "name": "",
          "type": "string"
        }
      ],
      "stateMutability": "view",
      "type": "function",
      "constant": true
    },
    {
      "inputs": [
        {
          "internalType": "uint256",
          "name": "tokenId",
          "type": "uint256"
        }
      ],
      "name": "getApproved",
      "outputs": [
        {
          "internalType": "address",
          "name": "",
          "type": "address"
        }
      ],
      "stateMutability": "view",
      "type": "function",
      "constant": true
    },
    {
      "inputs": [
        {
          "internalType": "address",
          "name": "owner",
          "type": "address"
        },
        {
          "internalType": "address",
          "name": "operator",
          "type": "address"
        }
      ],
      "name": "isApprovedForAll",
      "outputs": [
        {
          "internalType": "bool",
          "name": "",
          "type": "bool"
        }
      ],
      "stateMutability": "view",
      "type": "function",
      "constant": true
    },
    {
      "inputs": [],
      "name": "name",
      "outputs": [
        {
          "internalType": "string",
          "name": "",
          "type": "string"
        }
      ],
      "stateMutability": "view",
      "type": "function",
      "constant": true
    },
    {
      "inputs": [],
      "name": "owner",
      "outputs": [
        {
          "internalType": "address",
          "name": "",
          "type": "address"
        }
      ],
      "stateMutability": "view",
      "type": "function",
      "constant": true
    },
    {
      "inputs": [
        {
          "internalType": "uint256",
          "name": "tokenId",
          "type": "uint256"
        }
      ],
      "name": "ownerOf",
      "outputs": [
        {
          "internalType": "address",
          "name": "",
          "type": "address"
        }
      ],
      "stateMutability": "view",
      "type": "function",
      "constant": true
    },
    {
      "inputs": [],
      "name": "productCount",
      "outputs": [
        {
          "internalType": "uint256",
          "name": "",
          "type": "uint256"
        }
      ],
      "stateMutability": "view",
      "type": "function",
      "constant": true
    },
    {
      "inputs": [
        {
          "internalType": "uint256",
          "name": "",
          "type": "uint256"
        }
      ],
      "name": "products",
      "outputs": [
        {
          "internalType": "uint256",
          "name": "id",
          "type": "uint256"
        },
        {
          "internalType": "string",
          "name": "name",
          "type": "string"
        },
        {
          "internalType": "string",
          "name": "image",
          "type": "string"
        },
        {
          "internalType": "uint256",
          "name": "price",
          "type": "uint256"
        },
        {
          "internalType": "address payable",
          "name": "owner",
          "type": "address"
        },
        {
          "internalType": "bool",
          "name": "purchased",
          "type": "bool"
        }
      ],
      "stateMutability": "view",
      "type": "function",
      "constant": true
    },
    {
      "inputs": [],
      "name": "renounceOwnership",
      "outputs": [],
      "stateMutability": "nonpayable",
      "type": "function"
    },
    {
      "inputs": [
        {
          "internalType": "address",
          "name": "from",
          "type": "address"
        },
        {
          "internalType": "address",
          "name": "to",
          "type": "address"
        },
        {
          "internalType": "uint256",
          "name": "tokenId",
          "type": "uint256"
        }
      ],
      "name": "safeTransferFrom",
      "outputs": [],
      "stateMutability": "nonpayable",
      "type": "function"
    },
    {
      "inputs": [
        {
          "internalType": "address",
          "name": "from",
          "type": "address"
        },
        {
          "internalType": "address",
          "name": "to",
          "type": "address"
        },
        {
          "internalType": "uint256",
          "name": "tokenId",
          "type": "uint256"
        },
        {
          "internalType": "bytes",
          "name": "_data",
          "type": "bytes"
        }
      ],
      "name": "safeTransferFrom",
      "outputs": [],
      "stateMutability": "nonpayable",
      "type": "function"
    },
    {
      "inputs": [
        {
          "internalType": "address",
          "name": "operator",
          "type": "address"
        },
        {
          "internalType": "bool",
          "name": "approved",
          "type": "bool"
        }
      ],
      "name": "setApprovalForAll",
      "outputs": [],
      "stateMutability": "nonpayable",
      "type": "function"
    },
    {
      "inputs": [
        {
          "internalType": "bytes4",
          "name": "interfaceId",
          "type": "bytes4"
        }
      ],
      "name": "supportsInterface",
      "outputs": [
        {
          "internalType": "bool",
          "name": "",
          "type": "bool"
        }
      ],
      "stateMutability": "view",
      "type": "function",
      "constant": true
    },
    {
      "inputs": [],
      "name": "symbol",
      "outputs": [
        {
          "internalType": "string",
          "name": "",
          "type": "string"
        }
      ],
      "stateMutability": "view",
      "type": "function",
      "constant": true
    },
    {
      "inputs": [
        {
          "internalType": "uint256",
          "name": "index",
          "type": "uint256"
        }
      ],
      "name": "tokenByIndex",
      "outputs": [
        {
          "internalType": "uint256",
          "name": "",
          "type": "uint256"
        }
      ],
      "stateMutability": "view",
      "type": "function",
      "constant": true
    },
    {
      "inputs": [
        {
          "internalType": "address",
          "name": "owner",
          "type": "address"
        },
        {
          "internalType": "uint256",
          "name": "index",
          "type": "uint256"
        }
      ],
      "name": "tokenOfOwnerByIndex",
      "outputs": [
        {
          "internalType": "uint256",
          "name": "",
          "type": "uint256"
        }
      ],
      "stateMutability": "view",
      "type": "function",
      "constant": true
    },
    {
      "inputs": [
        {
          "internalType": "uint256",
          "name": "tokenId",
          "type": "uint256"
        }
      ],
      "name": "tokenURI",
      "outputs": [
        {
          "internalType": "string",
          "name": "",
          "type": "string"
        }
      ],
      "stateMutability": "view",
      "type": "function",
      "constant": true
    },
    {
      "inputs": [],
      "name": "totalSupply",
      "outputs": [
        {
          "internalType": "uint256",
          "name": "",
          "type": "uint256"
        }
      ],
      "stateMutability": "view",
      "type": "function",
      "constant": true
    },
    {
      "inputs": [
        {
          "internalType": "address",
          "name": "from",
          "type": "address"
        },
        {
          "internalType": "address",
          "name": "to",
          "type": "address"
        },
        {
          "internalType": "uint256",
          "name": "tokenId",
          "type": "uint256"
        }
      ],
      "name": "transferFrom",
      "outputs": [],
      "stateMutability": "nonpayable",
      "type": "function"
    },
    {
      "inputs": [
        {
          "internalType": "address",
          "name": "newOwner",
          "type": "address"
        }
      ],
      "name": "transferOwnership",
      "outputs": [],
      "stateMutability": "nonpayable",
      "type": "function"
    },
    {
      "inputs": [
        {
          "internalType": "string",
          "name": "_name",
          "type": "string"
        },
        {
          "internalType": "string",
          "name": "_image",
          "type": "string"
        },
        {
          "internalType": "uint256",
          "name": "_price",
          "type": "uint256"
        }
      ],
      "name": "createProduct",
      "outputs": [],
      "stateMutability": "nonpayable",
      "type": "function"
    },
    {
      "inputs": [
        {
          "internalType": "uint256",
          "name": "_id",
          "type": "uint256"
        }
      ],
      "name": "purchaseProduct",
      "outputs": [],
      "stateMutability": "payable",
      "type": "function",
      "payable": true
    }
  ],
  "bytecode": "0x60806040526000600b553480156200001657600080fd5b506040518060400160405280600b81526020017f43727970746f50757070790000000000000000000000000000000000000000008152506040518060400160405280600481526020017f43505550000000000000000000000000000000000000000000000000000000008152506200009b6301ffc9a760e01b620001ce60201b60201c565b8160069080519060200190620000b3929190620002df565b508060079080519060200190620000cc929190620002df565b50620000e56380ac58cd60e01b620001ce60201b60201c565b620000fd635b5e139f60e01b620001ce60201b60201c565b6200011563780e9d6360e01b620001ce60201b60201c565b5050600062000129620002d760201b60201c565b905080600a60006101000a81548173ffffffffffffffffffffffffffffffffffffffff021916908373ffffffffffffffffffffffffffffffffffffffff1602179055508073ffffffffffffffffffffffffffffffffffffffff16600073ffffffffffffffffffffffffffffffffffffffff167f8be0079c531659141344cd1fd0a4f28419497f9722a3daafe3b4186f6b6457e060405160405180910390a35062000385565b63ffffffff60e01b817bffffffffffffffffffffffffffffffffffffffffffffffffffffffff191614156200026b576040517f08c379a000000000000000000000000000000000000000000000000000000000815260040180806020018281038252601c8152602001807f4552433136353a20696e76616c696420696e746572666163652069640000000081525060200191505060405180910390fd5b6001600080837bffffffffffffffffffffffffffffffffffffffffffffffffffffffff19167bffffffffffffffffffffffffffffffffffffffffffffffffffffffff1916815260200190815260200160002060006101000a81548160ff02191690831515021790555050565b600033905090565b828054600181600116156101000203166002900490600052602060002090601f016020900481019282601f106200032257805160ff191683800117855562000353565b8280016001018555821562000353579182015b828111156200035257825182559160200191906001019062000335565b5b50905062000362919062000366565b5090565b5b808211156200038157600081600090555060010162000367565b5090565b613cac80620003956000396000f3fe60806040526004361061014b5760003560e01c806370a08231116100b6578063a22cb4651161006f578063a22cb46514610a1c578063b88d4fde14610a79578063c87b56dd14610b8b578063e0f6ef8714610c3f578063e985e9c514610c6a578063f2fde38b14610cf15761014b565b806370a0823114610612578063715018a6146106775780637acc0b201461068e5780638da5cb5b146107e257806395d89b4114610823578063a1422209146108b35761014b565b80632f745c59116101085780632f745c59146103b657806338e76a031461042557806342842e0e146104535780634f6ccce7146104ce5780636352211e1461051d5780636c0360eb146105825761014b565b806301ffc9a71461015057806306fdde03146101c0578063081812fc14610250578063095ea7b3146102b557806318160ddd1461031057806323b872dd1461033b575b600080fd5b34801561015c57600080fd5b506101a86004803603602081101561017357600080fd5b8101908080357bffffffffffffffffffffffffffffffffffffffffffffffffffffffff19169060200190929190505050610d42565b60405180821515815260200191505060405180910390f35b3480156101cc57600080fd5b506101d5610da9565b6040518080602001828103825283818151815260200191508051906020019080838360005b838110156102155780820151818401526020810190506101fa565b50505050905090810190601f1680156102425780820380516001836020036101000a031916815260200191505b509250505060405180910390f35b34801561025c57600080fd5b506102896004803603602081101561027357600080fd5b8101908080359060200190929190505050610e4b565b604051808273ffffffffffffffffffffffffffffffffffffffff16815260200191505060405180910390f35b3480156102c157600080fd5b5061030e600480360360408110156102d857600080fd5b81019080803573ffffffffffffffffffffffffffffffffffffffff16906020019092919080359060200190929190505050610ee6565b005b34801561031c57600080fd5b5061032561102a565b6040518082815260200191505060405180910390f35b34801561034757600080fd5b506103b46004803603606081101561035e57600080fd5b81019080803573ffffffffffffffffffffffffffffffffffffffff169060200190929190803573ffffffffffffffffffffffffffffffffffffffff1690602001909291908035906020019092919050505061103b565b005b3480156103c257600080fd5b5061040f600480360360408110156103d957600080fd5b81019080803573ffffffffffffffffffffffffffffffffffffffff169060200190929190803590602001909291905050506110b1565b6040518082815260200191505060405180910390f35b6104516004803603602081101561043b57600080fd5b810190808035906020019092919050505061110c565b005b34801561045f57600080fd5b506104cc6004803603606081101561047657600080fd5b81019080803573ffffffffffffffffffffffffffffffffffffffff169060200190929190803573ffffffffffffffffffffffffffffffffffffffff16906020019092919080359060200190929190505050611763565b005b3480156104da57600080fd5b50610507600480360360208110156104f157600080fd5b8101908080359060200190929190505050611783565b6040518082815260200191505060405180910390f35b34801561052957600080fd5b506105566004803603602081101561054057600080fd5b81019080803590602001909291905050506117a6565b604051808273ffffffffffffffffffffffffffffffffffffffff16815260200191505060405180910390f35b34801561058e57600080fd5b506105976117dd565b6040518080602001828103825283818151815260200191508051906020019080838360005b838110156105d75780820151818401526020810190506105bc565b50505050905090810190601f1680156106045780820380516001836020036101000a031916815260200191505b509250505060405180910390f35b34801561061e57600080fd5b506106616004803603602081101561063557600080fd5b81019080803573ffffffffffffffffffffffffffffffffffffffff16906020019092919050505061187f565b6040518082815260200191505060405180910390f35b34801561068357600080fd5b5061068c611954565b005b34801561069a57600080fd5b506106c7600480360360208110156106b157600080fd5b8101908080359060200190929190505050611ac4565b6040518087815260200180602001806020018681526020018573ffffffffffffffffffffffffffffffffffffffff1681526020018415158152602001838103835288818151815260200191508051906020019080838360005b8381101561073b578082015181840152602081019050610720565b50505050905090810190601f1680156107685780820380516001836020036101000a031916815260200191505b50838103825287818151815260200191508051906020019080838360005b838110156107a1578082015181840152602081019050610786565b50505050905090810190601f1680156107ce5780820380516001836020036101000a031916815260200191505b509850505050505050505060405180910390f35b3480156107ee57600080fd5b506107f7611c5d565b604051808273ffffffffffffffffffffffffffffffffffffffff16815260200191505060405180910390f35b34801561082f57600080fd5b50610838611c87565b6040518080602001828103825283818151815260200191508051906020019080838360005b8381101561087857808201518184015260208101905061085d565b50505050905090810190601f1680156108a55780820380516001836020036101000a031916815260200191505b509250505060405180910390f35b3480156108bf57600080fd5b50610a1a600480360360608110156108d657600080fd5b81019080803590602001906401000000008111156108f357600080fd5b82018360208201111561090557600080fd5b8035906020019184600183028401116401000000008311171561092757600080fd5b91908080601f016020809104026020016040519081016040528093929190818152602001838380828437600081840152601f19601f8201169050808301925050505050505091929192908035906020019064010000000081111561098a57600080fd5b82018360208201111561099c57600080fd5b803590602001918460018302840111640100000000831117156109be57600080fd5b91908080601f016020809104026020016040519081016040528093929190818152602001838380828437600081840152601f19601f82011690508083019250505050505050919291929080359060200190929190505050611d29565b005b348015610a2857600080fd5b50610a7760048036036040811015610a3f57600080fd5b81019080803573ffffffffffffffffffffffffffffffffffffffff169060200190929190803515159060200190929190505050612086565b005b348015610a8557600080fd5b50610b8960048036036080811015610a9c57600080fd5b81019080803573ffffffffffffffffffffffffffffffffffffffff169060200190929190803573ffffffffffffffffffffffffffffffffffffffff1690602001909291908035906020019092919080359060200190640100000000811115610b0357600080fd5b820183602082011115610b1557600080fd5b80359060200191846001830284011164010000000083111715610b3757600080fd5b91908080601f016020809104026020016040519081016040528093929190818152602001838380828437600081840152601f19601f82011690508083019250505050505050919291929050505061223c565b005b348015610b9757600080fd5b50610bc460048036036020811015610bae57600080fd5b81019080803590602001909291905050506122b4565b6040518080602001828103825283818151815260200191508051906020019080838360005b83811015610c04578082015181840152602081019050610be9565b50505050905090810190601f168015610c315780820380516001836020036101000a031916815260200191505b509250505060405180910390f35b348015610c4b57600080fd5b50610c54612585565b6040518082815260200191505060405180910390f35b348015610c7657600080fd5b50610cd960048036036040811015610c8d57600080fd5b81019080803573ffffffffffffffffffffffffffffffffffffffff169060200190929190803573ffffffffffffffffffffffffffffffffffffffff16906020019092919050505061258b565b60405180821515815260200191505060405180910390f35b348015610cfd57600080fd5b50610d4060048036036020811015610d1457600080fd5b81019080803573ffffffffffffffffffffffffffffffffffffffff16906020019092919050505061261f565b005b6000806000837bffffffffffffffffffffffffffffffffffffffffffffffffffffffff19167bffffffffffffffffffffffffffffffffffffffffffffffffffffffff1916815260200190815260200160002060009054906101000a900460ff169050919050565b606060068054600181600116156101000203166002900480601f016020809104026020016040519081016040528092919081815260200182805460018160011615610100020316600290048015610e415780601f10610e1657610100808354040283529160200191610e41565b820191906000526020600020905b815481529060010190602001808311610e2457829003601f168201915b5050505050905090565b6000610e5682612814565b610eab576040517f08c379a000000000000000000000000000000000000000000000000000000000815260040180806020018281038252602c815260200180613b11602c913960400191505060405180910390fd5b6004600083815260200190815260200160002060009054906101000a900473ffffffffffffffffffffffffffffffffffffffff169050919050565b6000610ef1826117a6565b90508073ffffffffffffffffffffffffffffffffffffffff168373ffffffffffffffffffffffffffffffffffffffff161415610f78576040517f08c379a0000000000000000000000000000000000000000000000000000000008152600401808060200182810382526021815260200180613bcc6021913960400191505060405180910390fd5b8073ffffffffffffffffffffffffffffffffffffffff16610f97612831565b73ffffffffffffffffffffffffffffffffffffffff161480610fc65750610fc581610fc0612831565b61258b565b5b61101b576040517f08c379a0000000000000000000000000000000000000000000000000000000008152600401808060200182810382526038815260200180613a3c6038913960400191505060405180910390fd5b6110258383612839565b505050565b600061103660026128f2565b905090565b61104c611046612831565b82612907565b6110a1576040517f08c379a0000000000000000000000000000000000000000000000000000000008152600401808060200182810382526031815260200180613c466031913960400191505060405180910390fd5b6110ac8383836129fb565b505050565b600061110482600160008673ffffffffffffffffffffffffffffffffffffffff1673ffffffffffffffffffffffffffffffffffffffff168152602001908152602001600020612c3e90919063ffffffff16565b905092915050565b611114613860565b600c60008381526020019081526020016000206040518060c001604052908160008201548152602001600182018054600181600116156101000203166002900480601f0160208091040260200160405190810160405280929190818152602001828054600181600116156101000203166002900480156111d55780601f106111aa576101008083540402835291602001916111d5565b820191906000526020600020905b8154815290600101906020018083116111b857829003601f168201915b50505050508152602001600282018054600181600116156101000203166002900480601f0160208091040260200160405190810160405280929190818152602001828054600181600116156101000203166002900480156112775780601f1061124c57610100808354040283529160200191611277565b820191906000526020600020905b81548152906001019060200180831161125a57829003601f168201915b50505050508152602001600382015481526020016004820160009054906101000a900473ffffffffffffffffffffffffffffffffffffffff1673ffffffffffffffffffffffffffffffffffffffff1673ffffffffffffffffffffffffffffffffffffffff1681526020016004820160149054906101000a900460ff1615151515815250509050600081608001519050600082600001511180156113205750600b54826000015111155b611375576040517f08c379a0000000000000000000000000000000000000000000000000000000008152600401808060200182810382526024815260200180613bed6024913960400191505060405180910390fd5b81606001513410156113d2576040517f08c379a0000000000000000000000000000000000000000000000000000000008152600401808060200182810382526035815260200180613c116035913960400191505060405180910390fd5b8160a001511561142d576040517f08c379a0000000000000000000000000000000000000000000000000000000008152600401808060200182810382526037815260200180613b3d6037913960400191505060405180910390fd5b3373ffffffffffffffffffffffffffffffffffffffff168173ffffffffffffffffffffffffffffffffffffffff1614156114b2576040517f08c379a0000000000000000000000000000000000000000000000000000000008152600401808060200182810382526028815260200180613ac76028913960400191505060405180910390fd5b33826080019073ffffffffffffffffffffffffffffffffffffffff16908173ffffffffffffffffffffffffffffffffffffffff168152505060018260a001901515908115158152505081600c60008581526020019081526020016000206000820151816000015560208201518160010190805190602001906115359291906138ae565b5060408201518160020190805190602001906115529291906138ae565b506060820151816003015560808201518160040160006101000a81548173ffffffffffffffffffffffffffffffffffffffff021916908373ffffffffffffffffffffffffffffffffffffffff16021790555060a08201518160040160146101000a81548160ff0219169083151502179055509050508073ffffffffffffffffffffffffffffffffffffffff166108fc349081150290604051600060405180830381858888f1935050505015801561160d573d6000803e3d6000fd5b507f5670f88139d28601bfe12c4f5db1a8220966f1b2c6f5c1b3e9731748c12bef64600b548360200151846040015185606001513360016040518087815260200180602001806020018681526020018573ffffffffffffffffffffffffffffffffffffffff1681526020018415158152602001838103835288818151815260200191508051906020019080838360005b838110156116b857808201518184015260208101905061169d565b50505050905090810190601f1680156116e55780820380516001836020036101000a031916815260200191505b50838103825287818151815260200191508051906020019080838360005b8381101561171e578082015181840152602081019050611703565b50505050905090810190601f16801561174b5780820380516001836020036101000a031916815260200191505b509850505050505050505060405180910390a1505050565b61177e8383836040518060200160405280600081525061223c565b505050565b60008061179a836002612c5890919063ffffffff16565b50905080915050919050565b60006117d682604051806060016040528060298152602001613a9e602991396002612c849092919063ffffffff16565b9050919050565b606060098054600181600116156101000203166002900480601f0160208091040260200160405190810160405280929190818152602001828054600181600116156101000203166002900480156118755780601f1061184a57610100808354040283529160200191611875565b820191906000526020600020905b81548152906001019060200180831161185857829003601f168201915b5050505050905090565b60008073ffffffffffffffffffffffffffffffffffffffff168273ffffffffffffffffffffffffffffffffffffffff161415611906576040517f08c379a000000000000000000000000000000000000000000000000000000000815260040180806020018281038252602a815260200180613a74602a913960400191505060405180910390fd5b61194d600160008473ffffffffffffffffffffffffffffffffffffffff1673ffffffffffffffffffffffffffffffffffffffff168152602001908152602001600020612ca3565b9050919050565b61195c612831565b73ffffffffffffffffffffffffffffffffffffffff1661197a611c5d565b73ffffffffffffffffffffffffffffffffffffffff1614611a03576040517f08c379a00000000000000000000000000000000000000000000000000000000081526004018080602001828103825260208152602001807f4f776e61626c653a2063616c6c6572206973206e6f7420746865206f776e657281525060200191505060405180910390fd5b600073ffffffffffffffffffffffffffffffffffffffff16600a60009054906101000a900473ffffffffffffffffffffffffffffffffffffffff1673ffffffffffffffffffffffffffffffffffffffff167f8be0079c531659141344cd1fd0a4f28419497f9722a3daafe3b4186f6b6457e060405160405180910390a36000600a60006101000a81548173ffffffffffffffffffffffffffffffffffffffff021916908373ffffffffffffffffffffffffffffffffffffffff160217905550565b600c602052806000526040600020600091509050806000015490806001018054600181600116156101000203166002900480601f016020809104026020016040519081016040528092919081815260200182805460018160011615610100020316600290048015611b765780601f10611b4b57610100808354040283529160200191611b76565b820191906000526020600020905b815481529060010190602001808311611b5957829003601f168201915b505050505090806002018054600181600116156101000203166002900480601f016020809104026020016040519081016040528092919081815260200182805460018160011615610100020316600290048015611c145780601f10611be957610100808354040283529160200191611c14565b820191906000526020600020905b815481529060010190602001808311611bf757829003601f168201915b5050505050908060030154908060040160009054906101000a900473ffffffffffffffffffffffffffffffffffffffff16908060040160149054906101000a900460ff16905086565b6000600a60009054906101000a900473ffffffffffffffffffffffffffffffffffffffff16905090565b606060078054600181600116156101000203166002900480601f016020809104026020016040519081016040528092919081815260200182805460018160011615610100020316600290048015611d1f5780601f10611cf457610100808354040283529160200191611d1f565b820191906000526020600020905b815481529060010190602001808311611d0257829003601f168201915b5050505050905090565b6000835111611da0576040517f08c379a00000000000000000000000000000000000000000000000000000000081526004018080602001828103825260148152602001807f5265717569726520612076616c6964206e616d6500000000000000000000000081525060200191505060405180910390fd5b60008111611e16576040517f08c379a00000000000000000000000000000000000000000000000000000000081526004018080602001828103825260158152602001807f5265717569726520612076616c6964207072696365000000000000000000000081525060200191505060405180910390fd5b600b600081548092919060010191905055506040518060c00160405280600b5481526020018481526020018381526020018281526020013373ffffffffffffffffffffffffffffffffffffffff16815260200160001515815250600c6000600b548152602001908152602001600020600082015181600001556020820151816001019080519060200190611eab9291906138ae565b506040820151816002019080519060200190611ec89291906138ae565b506060820151816003015560808201518160040160006101000a81548173ffffffffffffffffffffffffffffffffffffffff021916908373ffffffffffffffffffffffffffffffffffffffff16021790555060a08201518160040160146101000a81548160ff0219169083151502179055509050507f63a99101901c72cb03a9e6f1cbaeda2eb16085ea58e490c2ecf7835160b16eb2600b548484843360006040518087815260200180602001806020018681526020018573ffffffffffffffffffffffffffffffffffffffff1681526020018415158152602001838103835288818151815260200191508051906020019080838360005b83811015611fdb578082015181840152602081019050611fc0565b50505050905090810190601f1680156120085780820380516001836020036101000a031916815260200191505b50838103825287818151815260200191508051906020019080838360005b83811015612041578082015181840152602081019050612026565b50505050905090810190601f16801561206e5780820380516001836020036101000a031916815260200191505b509850505050505050505060405180910390a1505050565b61208e612831565b73ffffffffffffffffffffffffffffffffffffffff168273ffffffffffffffffffffffffffffffffffffffff16141561212f576040517f08c379a00000000000000000000000000000000000000000000000000000000081526004018080602001828103825260198152602001807f4552433732313a20617070726f766520746f2063616c6c65720000000000000081525060200191505060405180910390fd5b806005600061213c612831565b73ffffffffffffffffffffffffffffffffffffffff1673ffffffffffffffffffffffffffffffffffffffff16815260200190815260200160002060008473ffffffffffffffffffffffffffffffffffffffff1673ffffffffffffffffffffffffffffffffffffffff16815260200190815260200160002060006101000a81548160ff0219169083151502179055508173ffffffffffffffffffffffffffffffffffffffff166121e9612831565b73ffffffffffffffffffffffffffffffffffffffff167f17307eab39ab6107e8899845ad3d59bd9653f200f220920489ca2b5937696c318360405180821515815260200191505060405180910390a35050565b61224d612247612831565b83612907565b6122a2576040517f08c379a0000000000000000000000000000000000000000000000000000000008152600401808060200182810382526031815260200180613c466031913960400191505060405180910390fd5b6122ae84848484612cb8565b50505050565b60606122bf82612814565b612314576040517f08c379a000000000000000000000000000000000000000000000000000000000815260040180806020018281038252602f815260200180613b9d602f913960400191505060405180910390fd5b6060600860008481526020019081526020016000208054600181600116156101000203166002900480601f0160208091040260200160405190810160405280929190818152602001828054600181600116156101000203166002900480156123bd5780601f10612392576101008083540402835291602001916123bd565b820191906000526020600020905b8154815290600101906020018083116123a057829003601f168201915b5050505050905060606123ce6117dd565b90506000815114156123e4578192505050612580565b6000825111156124b55780826040516020018083805190602001908083835b602083106124265780518252602082019150602081019050602083039250612403565b6001836020036101000a03801982511681845116808217855250505050505090500182805190602001908083835b602083106124775780518252602082019150602081019050602083039250612454565b6001836020036101000a0380198251168184511680821785525050505050509050019250505060405160208183030381529060405292505050612580565b806124bf85612d2a565b6040516020018083805190602001908083835b602083106124f557805182526020820191506020810190506020830392506124d2565b6001836020036101000a03801982511681845116808217855250505050505090500182805190602001908083835b602083106125465780518252602082019150602081019050602083039250612523565b6001836020036101000a03801982511681845116808217855250505050505090500192505050604051602081830303815290604052925050505b919050565b600b5481565b6000600560008473ffffffffffffffffffffffffffffffffffffffff1673ffffffffffffffffffffffffffffffffffffffff16815260200190815260200160002060008373ffffffffffffffffffffffffffffffffffffffff1673ffffffffffffffffffffffffffffffffffffffff16815260200190815260200160002060009054906101000a900460ff16905092915050565b612627612831565b73ffffffffffffffffffffffffffffffffffffffff16612645611c5d565b73ffffffffffffffffffffffffffffffffffffffff16146126ce576040517f08c379a00000000000000000000000000000000000000000000000000000000081526004018080602001828103825260208152602001807f4f776e61626c653a2063616c6c6572206973206e6f7420746865206f776e657281525060200191505060405180910390fd5b600073ffffffffffffffffffffffffffffffffffffffff168173ffffffffffffffffffffffffffffffffffffffff161415612754576040517f08c379a00000000000000000000000000000000000000000000000000000000081526004018080602001828103825260268152602001806139a06026913960400191505060405180910390fd5b8073ffffffffffffffffffffffffffffffffffffffff16600a60009054906101000a900473ffffffffffffffffffffffffffffffffffffffff1673ffffffffffffffffffffffffffffffffffffffff167f8be0079c531659141344cd1fd0a4f28419497f9722a3daafe3b4186f6b6457e060405160405180910390a380600a60006101000a81548173ffffffffffffffffffffffffffffffffffffffff021916908373ffffffffffffffffffffffffffffffffffffffff16021790555050565b600061282a826002612e7190919063ffffffff16565b9050919050565b600033905090565b816004600083815260200190815260200160002060006101000a81548173ffffffffffffffffffffffffffffffffffffffff021916908373ffffffffffffffffffffffffffffffffffffffff160217905550808273ffffffffffffffffffffffffffffffffffffffff166128ac836117a6565b73ffffffffffffffffffffffffffffffffffffffff167f8c5be1e5ebec7d5bd14f71427d1e84f3dd0314c0f7b2291e5b200ac8c7c3b92560405160405180910390a45050565b600061290082600001612e8b565b9050919050565b600061291282612814565b612967576040517f08c379a000000000000000000000000000000000000000000000000000000000815260040180806020018281038252602c815260200180613a10602c913960400191505060405180910390fd5b6000612972836117a6565b90508073ffffffffffffffffffffffffffffffffffffffff168473ffffffffffffffffffffffffffffffffffffffff1614806129e157508373ffffffffffffffffffffffffffffffffffffffff166129c984610e4b565b73ffffffffffffffffffffffffffffffffffffffff16145b806129f257506129f1818561258b565b5b91505092915050565b8273ffffffffffffffffffffffffffffffffffffffff16612a1b826117a6565b73ffffffffffffffffffffffffffffffffffffffff1614612a87576040517f08c379a0000000000000000000000000000000000000000000000000000000008152600401808060200182810382526029815260200180613b746029913960400191505060405180910390fd5b600073ffffffffffffffffffffffffffffffffffffffff168273ffffffffffffffffffffffffffffffffffffffff161415612b0d576040517f08c379a00000000000000000000000000000000000000000000000000000000081526004018080602001828103825260248152602001806139c66024913960400191505060405180910390fd5b612b18838383612e9c565b612b23600082612839565b612b7481600160008673ffffffffffffffffffffffffffffffffffffffff1673ffffffffffffffffffffffffffffffffffffffff168152602001908152602001600020612ea190919063ffffffff16565b50612bc681600160008573ffffffffffffffffffffffffffffffffffffffff1673ffffffffffffffffffffffffffffffffffffffff168152602001908152602001600020612ebb90919063ffffffff16565b50612bdd81836002612ed59092919063ffffffff16565b50808273ffffffffffffffffffffffffffffffffffffffff168473ffffffffffffffffffffffffffffffffffffffff167fddf252ad1be2c89b69c2b068fc378daa952ba7f163c4a11628f55a4df523b3ef60405160405180910390a4505050565b6000612c4d8360000183612f0a565b60001c905092915050565b600080600080612c6b8660000186612f8d565b915091508160001c8160001c9350935050509250929050565b6000612c97846000018460001b84613026565b60001c90509392505050565b6000612cb18260000161311c565b9050919050565b612cc38484846129fb565b612ccf8484848461312d565b612d24576040517f08c379a000000000000000000000000000000000000000000000000000000000815260040180806020018281038252603281526020018061396e6032913960400191505060405180910390fd5b50505050565b60606000821415612d72576040518060400160405280600181526020017f30000000000000000000000000000000000000000000000000000000000000008152509050612e6c565b600082905060005b60008214612d9c578080600101915050600a8281612d9457fe5b049150612d7a565b60608167ffffffffffffffff81118015612db557600080fd5b506040519080825280601f01601f191660200182016040528015612de85781602001600182028036833780820191505090505b50905060006001830390508593505b60008414612e6457600a8481612e0957fe5b0660300160f81b82828060019003935081518110612e2357fe5b60200101907effffffffffffffffffffffffffffffffffffffffffffffffffffffffffffff1916908160001a905350600a8481612e5c57fe5b049350612df7565b819450505050505b919050565b6000612e83836000018360001b613346565b905092915050565b600081600001805490509050919050565b505050565b6000612eb3836000018360001b613369565b905092915050565b6000612ecd836000018360001b613451565b905092915050565b6000612f01846000018460001b8473ffffffffffffffffffffffffffffffffffffffff1660001b6134c1565b90509392505050565b600081836000018054905011612f6b576040517f08c379a000000000000000000000000000000000000000000000000000000000815260040180806020018281038252602281526020018061394c6022913960400191505060405180910390fd5b826000018281548110612f7a57fe5b9060005260206000200154905092915050565b60008082846000018054905011612fef576040517f08c379a0000000000000000000000000000000000000000000000000000000008152600401808060200182810382526022815260200180613aef6022913960400191505060405180910390fd5b600084600001848154811061300057fe5b906000526020600020906002020190508060000154816001015492509250509250929050565b600080846001016000858152602001908152602001600020549050600081141583906130ed576040517f08c379a00000000000000000000000000000000000000000000000000000000081526004018080602001828103825283818151815260200191508051906020019080838360005b838110156130b2578082015181840152602081019050613097565b50505050905090810190601f1680156130df5780820380516001836020036101000a031916815260200191505b509250505060405180910390fd5b5084600001600182038154811061310057fe5b9060005260206000209060020201600101549150509392505050565b600081600001805490509050919050565b600061314e8473ffffffffffffffffffffffffffffffffffffffff1661359d565b61315b576001905061333e565b60606132c563150b7a0260e01b613170612831565b888787604051602401808573ffffffffffffffffffffffffffffffffffffffff1681526020018473ffffffffffffffffffffffffffffffffffffffff16815260200183815260200180602001828103825283818151815260200191508051906020019080838360005b838110156131f45780820151818401526020810190506131d9565b50505050905090810190601f1680156132215780820380516001836020036101000a031916815260200191505b5095505050505050604051602081830303815290604052907bffffffffffffffffffffffffffffffffffffffffffffffffffffffff19166020820180517bffffffffffffffffffffffffffffffffffffffffffffffffffffffff838183161783525050505060405180606001604052806032815260200161396e603291398773ffffffffffffffffffffffffffffffffffffffff166135b09092919063ffffffff16565b905060008180602001905160208110156132de57600080fd5b8101908080519060200190929190505050905063150b7a0260e01b7bffffffffffffffffffffffffffffffffffffffffffffffffffffffff1916817bffffffffffffffffffffffffffffffffffffffffffffffffffffffff191614925050505b949350505050565b600080836001016000848152602001908152602001600020541415905092915050565b6000808360010160008481526020019081526020016000205490506000811461344557600060018203905060006001866000018054905003905060008660000182815481106133b457fe5b90600052602060002001549050808760000184815481106133d157fe5b906000526020600020018190555060018301876001016000838152602001908152602001600020819055508660000180548061340957fe5b6001900381819060005260206000200160009055905586600101600087815260200190815260200160002060009055600194505050505061344b565b60009150505b92915050565b600061345d83836135c8565b6134b65782600001829080600181540180825580915050600190039060005260206000200160009091909190915055826000018054905083600101600084815260200190815260200160002081905550600190506134bb565b600090505b92915050565b600080846001016000858152602001908152602001600020549050600081141561356857846000016040518060400160405280868152602001858152509080600181540180825580915050600190039060005260206000209060020201600090919091909150600082015181600001556020820151816001015550508460000180549050856001016000868152602001908152602001600020819055506001915050613596565b8285600001600183038154811061357b57fe5b90600052602060002090600202016001018190555060009150505b9392505050565b600080823b905060008111915050919050565b60606135bf84846000856135eb565b90509392505050565b600080836001016000848152602001908152602001600020541415905092915050565b606082471015613646576040517f08c379a00000000000000000000000000000000000000000000000000000000081526004018080602001828103825260268152602001806139ea6026913960400191505060405180910390fd5b61364f8561359d565b6136c1576040517f08c379a000000000000000000000000000000000000000000000000000000000815260040180806020018281038252601d8152602001807f416464726573733a2063616c6c20746f206e6f6e2d636f6e747261637400000081525060200191505060405180910390fd5b600060608673ffffffffffffffffffffffffffffffffffffffff1685876040518082805190602001908083835b6020831061371157805182526020820191506020810190506020830392506136ee565b6001836020036101000a03801982511681845116808217855250505050505090500191505060006040518083038185875af1925050503d8060008114613773576040519150601f19603f3d011682016040523d82523d6000602084013e613778565b606091505b5091509150613788828286613794565b92505050949350505050565b606083156137a457829050613859565b6000835111156137b75782518084602001fd5b816040517f08c379a00000000000000000000000000000000000000000000000000000000081526004018080602001828103825283818151815260200191508051906020019080838360005b8381101561381e578082015181840152602081019050613803565b50505050905090810190601f16801561384b5780820380516001836020036101000a031916815260200191505b509250505060405180910390fd5b9392505050565b6040518060c0016040528060008152602001606081526020016060815260200160008152602001600073ffffffffffffffffffffffffffffffffffffffff1681526020016000151581525090565b828054600181600116156101000203166002900490600052602060002090601f016020900481019282601f106138ef57805160ff191683800117855561391d565b8280016001018555821561391d579182015b8281111561391c578251825591602001919060010190613901565b5b50905061392a919061392e565b5090565b5b8082111561394757600081600090555060010161392f565b509056fe456e756d657261626c655365743a20696e646578206f7574206f6620626f756e64734552433732313a207472616e7366657220746f206e6f6e20455243373231526563656976657220696d706c656d656e7465724f776e61626c653a206e6577206f776e657220697320746865207a65726f20616464726573734552433732313a207472616e7366657220746f20746865207a65726f2061646472657373416464726573733a20696e73756666696369656e742062616c616e636520666f722063616c6c4552433732313a206f70657261746f7220717565727920666f72206e6f6e6578697374656e7420746f6b656e4552433732313a20617070726f76652063616c6c6572206973206e6f74206f776e6572206e6f7220617070726f76656420666f7220616c6c4552433732313a2062616c616e636520717565727920666f7220746865207a65726f20616464726573734552433732313a206f776e657220717565727920666f72206e6f6e6578697374656e7420746f6b656e52657175697265207468617420746865206275796572206973206e6f74207468652073656c6c6572456e756d657261626c654d61703a20696e646578206f7574206f6620626f756e64734552433732313a20617070726f76656420717565727920666f72206e6f6e6578697374656e7420746f6b656e526571756972652074686174207468652070726f6475637420686173206e6f74206265656e2070757263686173656420616c72656164794552433732313a207472616e73666572206f6620746f6b656e2074686174206973206e6f74206f776e4552433732314d657461646174613a2055524920717565727920666f72206e6f6e6578697374656e7420746f6b656e4552433732313a20617070726f76616c20746f2063757272656e74206f776e65724d616b652073757265207468652070726f647563742068617320612076616c696420696452657175697265207468617420746865726520697320656e6f75676820457468657220696e20746865207472616e73616374696f6e4552433732313a207472616e736665722063616c6c6572206973206e6f74206f776e6572206e6f7220617070726f766564a2646970667358221220bc8fe2786086d92d99b3ad6f0549eb071b13847b085b03d6334e3dca7ce67eea64736f6c634300060c0033",
  "immutableReferences": {},
  "source": "pragma solidity ^0.6.0;\r\n\r\nimport '@openzeppelin/contracts/token/ERC721/ERC721.sol';\r\nimport '@openzeppelin/contracts/access/Ownable.sol';\r\n\r\ncontract Marketplace is ERC721 , Ownable{\r\n    \r\n    uint public productCount = 0;\r\n    mapping(uint => Product) public products;\r\n\r\n    struct Product {\r\n        uint id;\r\n        string name;\r\n        string image;\r\n        uint price;\r\n        address payable owner;\r\n        bool purchased;\r\n    }\r\n\r\n    event ProductCreated(\r\n        uint id,\r\n        string name,\r\n        string image,\r\n        uint price,\r\n        address payable owner,\r\n        bool purchased\r\n    );\r\n\r\n    event ProductPurchased(\r\n        uint id,\r\n        string name,\r\n        string image,\r\n        uint price,\r\n        address payable owner,\r\n        bool purchased\r\n    );\r\n\r\n    constructor () ERC721(\"CryptoPuppy\", \"CPUP\") public {        \r\n    }\r\n\r\n    function createProduct(string memory _name, string memory _image, uint _price) public {\r\n        // Require a valid name\r\n        require(bytes(_name).length > 0,'Require a valid name');\r\n        // Require a valid price\r\n        require(_price > 0,'Require a valid price');\r\n        // Increment product count\r\n        productCount ++;\r\n\r\n        // Create the product\r\n        products[productCount] = Product(productCount, _name, _image, _price,  msg.sender, false);\r\n        // Trigger an event\r\n        emit ProductCreated(productCount, _name, _image,_price,  msg.sender, false);\r\n    }\r\n\r\n    function purchaseProduct(uint _id) public payable {\r\n        // Fetch the product\r\n        Product memory _product = products[_id];\r\n        // Fetch the owner\r\n        address payable _seller = _product.owner;\r\n        // Make sure the product has a valid id\r\n        require(_product.id > 0 && _product.id <= productCount,'Make sure the product has a valid id');\r\n        // Require that there is enough Ether in the transaction\r\n        require(msg.value >= _product.price, 'Require that there is enough Ether in the transaction');\r\n        // Require that the product has not been purchased already\r\n        require(!_product.purchased, 'Require that the product has not been purchased already');\r\n        // Require that the buyer is not the seller\r\n        require(_seller != msg.sender, 'Require that the buyer is not the seller');\r\n        // Transfer ownership to the buyer\r\n        _product.owner = msg.sender;\r\n        // Mark as purchased\r\n        _product.purchased = true;\r\n        // Update the product\r\n        products[_id] = _product;\r\n        // Pay the seller by sending them Ether\r\n        _seller.transfer(msg.value);\r\n        // Trigger an event\r\n\r\n\r\n        emit ProductPurchased(productCount, _product.name, _product.image,_product.price, msg.sender, true);\r\n    }\r\n}\r\n",
  "sourcePath": "C:/workspace/p3/Blockchain_Marketplace/src/contracts/Marketplace.sol",
  "compiler": {
    "name": "solc",
    "version": "0.6.12+commit.27d51765.Emscripten.clang"
  },
  "schemaVersion": "3.3.4",
  "updatedAt": "2021-03-12T02:34:41.652Z",
  "networkType": "ethereum",
  "devdoc": {
    "kind": "dev",
    "methods": {
      "approve(address,uint256)": {
        "details": "See {IERC721-approve}."
      },
      "balanceOf(address)": {
        "details": "See {IERC721-balanceOf}."
      },
      "baseURI()": {
        "details": "Returns the base URI set via {_setBaseURI}. This will be automatically added as a prefix in {tokenURI} to each token's URI, or to the token ID if no specific URI is set for that token ID."
      },
      "getApproved(uint256)": {
        "details": "See {IERC721-getApproved}."
      },
      "isApprovedForAll(address,address)": {
        "details": "See {IERC721-isApprovedForAll}."
      },
      "name()": {
        "details": "See {IERC721Metadata-name}."
      },
      "owner()": {
        "details": "Returns the address of the current owner."
      },
      "ownerOf(uint256)": {
        "details": "See {IERC721-ownerOf}."
      },
      "renounceOwnership()": {
        "details": "Leaves the contract without owner. It will not be possible to call `onlyOwner` functions anymore. Can only be called by the current owner. NOTE: Renouncing ownership will leave the contract without an owner, thereby removing any functionality that is only available to the owner."
      },
      "safeTransferFrom(address,address,uint256)": {
        "details": "See {IERC721-safeTransferFrom}."
      },
      "safeTransferFrom(address,address,uint256,bytes)": {
        "details": "See {IERC721-safeTransferFrom}."
      },
      "setApprovalForAll(address,bool)": {
        "details": "See {IERC721-setApprovalForAll}."
      },
      "supportsInterface(bytes4)": {
        "details": "See {IERC165-supportsInterface}. Time complexity O(1), guaranteed to always use less than 30 000 gas."
      },
      "symbol()": {
        "details": "See {IERC721Metadata-symbol}."
      },
      "tokenByIndex(uint256)": {
        "details": "See {IERC721Enumerable-tokenByIndex}."
      },
      "tokenOfOwnerByIndex(address,uint256)": {
        "details": "See {IERC721Enumerable-tokenOfOwnerByIndex}."
      },
      "tokenURI(uint256)": {
        "details": "See {IERC721Metadata-tokenURI}."
      },
      "totalSupply()": {
        "details": "See {IERC721Enumerable-totalSupply}."
      },
      "transferFrom(address,address,uint256)": {
        "details": "See {IERC721-transferFrom}."
      },
      "transferOwnership(address)": {
        "details": "Transfers ownership of the contract to a new account (`newOwner`). Can only be called by the current owner."
      }
    },
    "version": 1
  },
  "userdoc": {
    "kind": "user",
    "methods": {},
    "version": 1
  }
}